:020000040800F2
:10000000A809002049020008711A00086F180008AA
:100010006D1A000817050008771F0008000000008F
:10002000000000000000000000000000771A000837
:100030001B05000800000000751A00088D1B000851
:1000400063020008630200086302000863020008FC
:1000500063020008630200086302000863020008EC
:1000600063020008630200086302000863020008DC
:1000700063020008630200086302000863020008CC
:1000800063020008630200086302000863020008BC
:1000900063020008630200086302000863020008AC
:1000A000630200086302000863020008630200089C
:1000B00063020008611C0008630200086302000874
:1000C000630200086302000863020008630200087C
:1000D000630200086302000863020008630200086C
:1000E000630200086302000863020008630200085C
:1000F000630200086302000863020008630200084C
:10010000630200086302000863020008630200083B
:10011000630200086302000863020008630200082B
:10012000630200086302000863020008630200081B
:10013000630200086302000863020008630200080B
:1001400063020008630200086302000863020008FB
:1001500063020008630200086302000863020008EB
:1001600063020008630200086302000863020008DB
:100170006302000863020008630200080000000038
:10018000630200086302000800F002F800F04CF877
:100190000AA090E8000C82448344AAF10107DA45E2
:1001A00001D100F041F8AFF2090EBAE80F0013F0E8
:1001B000010F18BFFB1A43F001031847C4400100A8
:1001C000E44001000A4410F8014B14F00F0508BF89
:1001D00010F8015B240908BF10F8014B6D1E05D013
:1001E00010F8013B6D1E01F8013BF9D1641E03D0EC
:1001F000641E01F8015BFBD19142E4D3704700001B
:100200000023002400250026103A28BF78C1FBD81F
:10021000520728BF30C148BF0B6070471FB501F0BF
:10022000E3FF1FBD10B510BD00F0CFF81146FFF77A
:10023000F5FF01F02FFF00F0EDF803B4FFF7F2FF38
:1002400003BC00F0F5F80000094880470948004762
:10025000FEE7FEE7FEE7FEE7FEE7FEE7FEE7FEE776
:10026000FEE7FEE704480549054A064B70470000D3
:100270004D1C000889010008A8030020A8090020DF
:10028000A8050020A805002053EA020C00F06980B0
:100290002DE9F04B4FF00006002B1FBFB3FA83F59A
:1002A00003FA05F424FA05F65E4012BF1643B2FACB
:1002B00082F502FA05F4C5F120051EBF22FA05FCFD
:1002C00044EA0C04203556EA044C4FEA144418BFA3
:1002D000641C4FF000084FF00009904271EB030CD2
:1002E00039D3002919BFB1FA81F701FA07F6B0FA3C
:1002F00080F700FA07F6C7F120071EBF20FA07FCB7
:1003000046EA0C062037B6FBF4FCA7EB0507103FC6
:1003100007F01F0BCBF120060CFA0BFB2CFA06F6AC
:1003200044BFB3460026202FA4BF5E464FF0000B0B
:100330005BEA060C08BF4FF0010B19EB0B09ABFB96
:10034000027C48EB0608C01B06FB02CC0BFB03CC6F
:1003500071EB0C01C1E70B46024641464846BDE839
:10036000F08B13B54FF000004FF00001AFF30080A9
:10037000BDE81C4070474FF0000200B5134694469C
:100380009646203922BFA0E80C50A0E80C50B1F1ED
:100390002001BFF4F7AF090728BFA0E80C5048BF01
:1003A0000CC05DF804EB890028BF40F8042B08BF9F
:1003B000704748BF20F8022B11F0804F18BF00F89B
:1003C000012B7047704770477047754600F02CF856
:1003D000AE4605006946534620F00700854618B032
:1003E00020B5FFF73FFFBDE820404FF000064FF07B
:1003F00000074FF000084FF0000B21F00701AC465A
:10040000ACE8C009ACE8C009ACE8C009ACE8C00978
:100410008D46704710B50446AFF300802046BDE816
:100420001040FFF70ABF0000004870474403002057
:1004300001491820ABBEFEE7260002007047017894
:1004400001B970474178022906D003291AD004293E
:100450002ED005294AD131E0D0E90112914204D3CE
:1004600000214160032141704DE04269816A1144DD
:1004700081624168491C416090F8241009B9052146
:10048000417040E0C2684168914204D3002141605C
:100490000421417037E08269816A891A816241686A
:1004A000491C416090F8241009B9052141702AE0E7
:1004B00090F8241009B90521417024E090F8241027
:1004C000012902D1022141701DE002694168914277
:1004D00004D3002141600121417014E0C269816AA6
:1004E000891A81624168491C41600CE00021416029
:1004F00090F82410012902D10221417000E000BFD0
:100500000021816200BF00BF826A016A5143090A6B
:10051000C16200BF95E700BFFEE7704772B600BF3B
:10052000FEE7F0B5034600BF5879012801D102204B
:10053000F0BD0120587100BF0220187118680468CE
:1005400002F0100640F6FE70B0408443D1E9000688
:1005500040EA060502F0100005FA00F004431868AE
:1005600004601868006802F01007C026BE40B0435F
:100570001E6830600120187100BF0020587100BF54
:1005800000BFD5E710B504460CB9012010BD207995
:1005900020B900206071204600F008F80220207188
:1005A00000202061012020710020EFE710B586B007
:1005B0000446142101A8FFF7DEFE1949206888428D
:1005C0002BD100BF002000901648006840F000507A
:1005D000144908600846006800F00050009000BF11
:1005E00000BF00BF002000900E481038006840F0A7
:1005F00001000C49103908600846006800F001004D
:10060000009000BF00BF1020019003200290002046
:10061000039001A9044800F05BF806B010BD00008B
:1006200000740040403802400000024038B50446E3
:10063000002000902068009029B902F10800009D78
:100640002844009004E002F11400009D284400902A
:1006500000980360002038BD10B5024600BF5079F5
:10066000012801D1022010BD0120507100BF0220DD
:1006700010711068006801F010040123A3401843B2
:100680001368186061B91068006800F03C003C28ED
:1006900016D11068406840F00100136858600FE000
:1006A0001068006800F4701301F010043C20A040B2
:1006B000834205D11068406840F00200136858601A
:1006C0000120107100BF0020507100BF00BFCAE7B9
:1006D000F8B502460B460025002400200021D6E094
:1006E000012606FA01F51E6806EA0504AC4274D13B
:1006F0001E7906F00306012E04D01E7906F00306CB
:10070000022E13D190684F000326BE40B0434F0025
:10071000DE68BE4030439060506801268E40B04392
:100720001E79C6F300168E40304350601E7906F0E5
:100730000306032E09D0D0684F000326BE40B04305
:100740004F009E68BE403043D0601E7906F003061D
:10075000022E13D1CF0802F1200656F827004E07CB
:10076000F70E0F26BE40B0434F07FF0E1E69BE4076
:100770003043CF0802F1200646F8270010684F00EA
:100780000326BE40B0431E7906F003064F00BE406C
:10079000304310605E6806F44036002E76D000BF0D
:1007A000002600963C4E366846F480463A4F3E603E
:1007B0003E46366806F48046009600BF00BF374EBE
:1007C0008F0856F827008E07370F0F26BE40B0431C
:1007D000334EB24202D1002624E057E0314EB242FD
:1007E00001D101261EE0304EB24201D1022619E0AD
:1007F0002E4EB24201D1032614E02D4EB24201D159
:1008000004260FE02B4EB24201D105260AE02A4E03
:10081000B24201D1062605E0284EB24201D1072698
:1008200000E008268F073F0FBE4030431B4E8F0865
:1008300046F82700224E3068A0435E6806F4801612
:1008400006B120431E4E3060361D3068A0435E68FE
:1008500006F4001606B12043194E361D3060184EBE
:10086000361F3068A0435E6806F4003606B12043A8
:10087000134E361F3060361F3068A0435E6806F4A2
:10088000803606B120430E4E083E3060491C1029C8
:10089000FFF426AFF8BD000044380240083801409C
:1008A000000002400004024000080240000C024028
:1008B000001002400014024000180240001C0240D8
:1008C000083C014010B5426921EA020302EA010432
:1008D00043EA0443836110BD0AB1816101E00B0466
:1008E00083617047014800687047000020010020C4
:1008F00003480068034909780844014908607047C3
:10090000200100202801002010B50D48006840F4A7
:1009100000700B4908600846006840F48060086079
:100920000846006840F480700860032000F0A2F8D8
:100930000F2000F007F800F02BF8002010BD000099
:10094000003C024070B504460E4800784FF47A71BE
:10095000B1FBF0F00C490968B1FBF0F5284600F056
:1009600005FC08B1012070BD102C07D200222146E1
:10097000501E00F041F80548046001E00120F2E754
:100980000020F0E7280100202C0100202401002095
:1009900008B500BF002000900E48006840F4804079
:1009A0000C4908600846006800F48040009000BFD1
:1009B00000BF00BF00200090081F006840F080507A
:1009C000091F08600846006800F08050009000BFD2
:1009D00000BF08BD4438024001460846002809DB34
:1009E00000F01F0301229A4043099B0003F1E0231A
:1009F000C3F8002100BF70472DE9F05F80460D4627
:100A00001646002701F02AFB074639462A46334698
:100A100001F00700C0F1070ABAF1040F02D94FF044
:100A2000040A01E0C0F1070AD14600F1040ABAF154
:100A3000070F02D24FF0000A01E0A0F1030AD446EA
:100A40004FF0010A0AFA09FAAAF1010A0AEA020AAF
:100A50000AFA0CFA4FF0010B0BFA0CFBABF1010B8D
:100A60000BEA030B4AEA0B042146404601F0FEFA6A
:100A7000BDE8F09F00BF00F00702064B19684FF673
:100A8000FF031940044B0B4343EA0221014B196059
:100A900000BF70470CED00E00000FA0570B5044699
:100AA0000D460CB9012070BD5848006800F00700E1
:100AB000A84209D255490D700846006800F00700A9
:100AC000A84201D00120EEE7207800F002000228C1
:100AD0001DD1207800F00400042805D14C4800689E
:100AE00040F4E0504A490860207800F008000828E7
:100AF00005D14748006840F46040454908604448D3
:100B0000006820F0F000A16808434149086020789F
:100B100000F00100A8B36068012807D13C480838FC
:100B20000068C0F34040B8B90120BCE76068022803
:100B300002D06068032807D1354808380068C0F340
:100B4000406048B90120AEE7314808380068C0F37A
:100B5000400008B90120A6E72D48006820F00300F6
:100B6000616808432A490860FFF7BCFE064609E0B1
:100B7000FFF7B8FE801B41F28831884202D903207A
:100B800091E707E02248006800F00C006168B0EBD4
:100B9000810FEDD11D48006800F00700A84209D977
:100BA0001A490D700846006800F00700A84201D0FD
:100BB000012078E7207800F00400042807D11448C9
:100BC000006820F4E050E16808431149086020788B
:100BD00000F00800082808D10D48006820F46040A3
:100BE000216940EAC1000A49086000F019F8084983
:100BF0000968C1F30311074A515CC84006490860FF
:100C000006480068FFF79EFE00204CE7003C0240CB
:100C100008380240684201082C010020240100200D
:100C20002DE9F047002400250026A146254800684C
:100C300000F00C0020B1042805D008283AD105E0C6
:100C4000DFF8849039E0DFF8849036E01D48001F1B
:100C5000006800F03F041B48001F006800F480009B
:100C600078B11A481749091F0968C1F38811A0FB18
:100C700001700146224600233846FFF705FB054672
:100C80000EE011480F49091F0968C1F38811A0FB44
:100C900001700146224600233846FFF7F5FA054663
:100CA0000848001F0068C0F30140401C4600B5FB27
:100CB000F6F902E0DFF8109000BF00BF4846BDE83B
:100CC000F0870000083802400024F40000127A0087
:100CD000F8B504460CB90120F8BD207800F00100F9
:100CE000002874D0F948006800F00C0004280DD0EA
:100CF000F648006800F00C00082813D1F348001FE4
:100D0000006800F48000B0F5800F0BD1EF48083880
:100D10000068C0F34040002859D06068002856D1D0
:100D20000120D9E700BF6068B0F5803F08D1E748EF
:100D30000838006840F48030E449083908601EE053
:100D40006068B0F5A02F0DD1E0480838006840F485
:100D50008020DE49083908600846006840F4803089
:100D600008600CE0D9480838006820F48030D74982
:100D7000083908600846006820F48020086000BF39
:100D8000606890B1FFF7AEFD054606E0FFF7AAFDEB
:100D9000401B642801D903209EE7CC48083800682E
:100DA000C0F340400028F1D011E0FFF79BFD05465D
:100DB00006E0FFF797FD401B642801D903208BE76D
:100DC000C24808380068C0F340400028F1D12078BC
:100DD00000F0020002285FD1BC48006800F00C005F
:100DE00058B1BA48006800F00C0008281CD1B74878
:100DF000001F006800F48000B0B9B44808380068EB
:100E0000C0F3400020B1E068012801D0012063E771
:100E1000AE480838006820F0F800216940EAC100B7
:100E2000AA490839086037E0E06800B30120A84902
:100E30000860FFF757FD054606E0FFF753FD401B2E
:100E4000022801D9032047E7A04808380068C0F30A
:100E500040000028F1D09D480838006820F0F800D4
:100E6000216940EAC10099490839086014E000206E
:100E700097490860FFF736FD054606E0FFF732FDAB
:100E8000401B022801D9032026E790480838006853
:100E9000C0F340000028F1D1207800F008000828B5
:100EA0002CD16069A8B101208A490860FFF71AFDBA
:100EB000054606E0FFF716FD401B022801D9032076
:100EC0000AE782486C300068C0F340000028F1D087
:100ED00014E000207F490860FFF704FD054606E0A6
:100EE000FFF700FD401B022801D90320F4E67748F4
:100EF0006C300068C0F340000028F1D1207800F089
:100F00000400042870D1002770483830006800F0D1
:100F1000805090B900BF002000906C4838300068C5
:100F200040F080506949383108600846006800F098
:100F30008050009000BF00BF01276748006800F4A0
:100F40008070B0B96448006840F4807062490860FD
:100F5000FFF7C8FC054606E0FFF7C4FC401B02286B
:100F600001D90320B8E65C48006800F480700028CE
:100F7000F2D000BFA068012808D15448683000684A
:100F800040F001005149683108601DE0A068052863
:100F90000DD14E486830006840F004004B4968317C
:100FA00008600846006840F0010008600CE047480F
:100FB0006830006820F00100444968310860084644
:100FC000006820F00400086000BFA068A8B1FFF727
:100FD00089FC054609E0FFF785FC401B41F288319A
:100FE000884202D9032077E626E038486830006856
:100FF000C0F340000028EED013E0FFF773FC054675
:1010000008E0FFF76FFC401B41F28831884201D9AC
:10101000032061E62D4868300068C0F340000028D6
:10102000EFD1012F07D129483830006820F08050D7
:1010300026493831086000BFA069002845D0234800
:10104000006800F00C0008285DD0A069022845D196
:1010500000201F490866FFF745FC054606E0FFF73C
:1010600041FC401B022801D9032035E61748083807
:101070000068C0F340600028F1D1D4E907010843BB
:10108000616A40EA81110122A06AC2EB500041EA84
:1010900000412C20005D41EA00600C49091F0860F6
:1010A00001200B490866FFF71DFC054606E0FFF727
:1010B00019FC401B022801D903200DE6034808381B
:1010C0000068C0F340600028F1D049E008380240D1
:1010D00000004742800E4742007000400020214936
:1010E0000866FFF7FFFB054606E0FFF7FBFB401B2A
:1010F000022801D90320EFE51B480068C0F34060D7
:101100000028F2D12CE0A069012800D1E4E51648BE
:10111000001D0668A069012820D006F48001E0695E
:1011200081421BD106F03F01206A814216D147F669
:10113000C0703040616AB0EB811F0FD106F44031BE
:101140000122A06AC2EB5000B1EB004F06D106F0BD
:1011500070612C20005DB1EB006F01D00120BBE578
:101160000020B9E5000047420038024070B504464F
:101170002546681EB0F1807F01D301200FE0681E74
:101180004FF0E02148610F214FF0FF3000F06EFF7B
:1011900000204FF0E021886107200861002070BD29
:1011A0007047704730B502460B4600BF92F83C00CE
:1011B000012801D1022030BD012082F83C0000BF8F
:1011C000022082F83D00106844681068816824F0AD
:1011D00070041868044310684460184D1068A842F1
:1011E0001BD01068B0F1804F17D0154D1068A84281
:1011F00013D0144D1068A8420FD0134D1068A842A8
:101200000BD0124D1068A84207D0114D1068A842AB
:1012100003D0104D1068A84205D121F08001586814
:10122000014310688160012082F83D0000BF00206A
:1012300082F83C0000BF00BFBDE700000000014095
:101240000004004000080040000C00400004014081
:10125000004001400018004010B504460CB90120C0
:1012600010BD94F83D0028B9002084F83C002046C9
:1012700000F026F8022084F83D00211D206800F0CF
:10128000F7FC012084F8460000BF84F83E000121ED
:101290003F200155402001554120015500BF00BFAE
:1012A000012084F842004320015544200155452087
:1012B000015500BF012084F83D000020D0E7000068
:1012C00038B504460E492068884217D100BF002077
:1012D00000900C48006840F002000A490860084687
:1012E000006800F00200009000BF00BF002211461D
:1012F0001D20FFF781FB1D20FFF76EFB38BD0000AE
:101300000004004040380240014691F83D000128A9
:1013100001D001207047022081F83D000868C068B4
:1013200040F001000B68D8601A4B086898421BD047
:101330000868B0F1804F17D0174B0868984213D057
:10134000164B086898420FD0154B086898420BD08E
:10135000144B0868984207D0134B0868984203D092
:10136000124B086898420CD10868806800F00702A8
:10137000062A0CD00868006840F001000B6818606D
:1013800005E00868006840F001000B681860002064
:10139000C0E70000000001400004004000080040D9
:1013A000000C0040000401400040014000180040D3
:1013B0002DE9F04104460D46002700BF94F83C009B
:1013C000012802D10220BDE8F081012084F83C0010
:1013D00000BF022084F83D002068866826F077066A
:1013E00026F47F46206886602868502833D00CDCBD
:1013F000202850D004DC00284BD0102851D149E0DF
:10140000302849D040284CD139E060282DD07028B0
:1014100007D0B0F5805F03D0B0F5005F41D10DE09B
:1014200041E0D5E902136A68206800F08DFC20686D
:10143000866846F077062068866034E0D5E90213B6
:101440006A68206800F080FC2068806840F4804072
:101450002168886027E0EA686968206800F064FD18
:101460005021206800F07BFC1DE0EA686968206874
:1014700000F06DFD6021206800F071FC13E0EA6867
:101480006968206800F050FD4021206800F067FC8A
:1014900009E000BF00BF00BF2968206800F05FFCC2
:1014A00001E0012700BF00BF012084F83D0000BF1C
:1014B000002084F83C0000BF384684E7704710B530
:1014C000044620680069C0F34000D8B12068C068B5
:1014D000C0F34000B0B16FF0020021680861012044
:1014E00020772068806900F0030018B12046FFF7DC
:1014F000E5FF05E0204600F0E5F8204600F017F98A
:101500000020207720680069C0F38000D8B12068EF
:10151000C068C0F38000B0B16FF0040021680861BA
:10152000022020772068806900F4407018B12046BE
:10153000FFF7C4FF05E0204600F0C4F8204600F0A5
:10154000F6F80020207720680069C0F3C000D8B109
:101550002068C068C0F3C000B0B16FF00800216817
:101560000861042020772068C06900F0030018B1EA
:101570002046FFF7A3FF05E0204600F0A3F8204631
:1015800000F0D5F80020207720680069C0F3001033
:10159000D8B12068C068C0F30010B0B16FF010007F
:1015A00021680861082020772068C06900F4407035
:1015B00018B12046FFF782FF05E0204600F082F8D0
:1015C000204600F0B4F8002020772068006900F081
:1015D000010058B12068C06800F0010030B16FF020
:1015E000010021680861204600F0A2F82068006927
:1015F000C0F3C01058B12068C068C0F3C01030B14B
:101600006FF08000216808612046FFF7C9FD20685F
:101610000069C0F3801058B12068C068C0F3801022
:1016200030B16FF0400021680861204600F01EF9DB
:1016300020680069C0F3401058B12068C068C0F34A
:10164000401030B16FF02000216808612046FFF79C
:10165000A8FD10BD2DE9F04104460E4615460027B1
:1016600000BF94F83C00012802D10220BDE8F081BF
:10167000012084F83C0000BF35B1042D09D0082DAD
:101680000CD00C2D14D10EE03146206800F070FB18
:1016900010E03146206800F0A3FB0BE031462068E3
:1016A00000F0DCFB06E03146206800F013FC01E0AE
:1016B000012700BF00BF00BF002084F83C0000BF2E
:1016C0003846D3E7704710B504460CB9012010BD69
:1016D00094F83D0028B9002084F83C00204600F032
:1016E00025F8022084F83D00211D206800F0C0FA92
:1016F000012084F8460000BF84F83E0001213F200D
:101700000155402001554120015500BF00BF012077
:1017100084F84200432001554420015545200155DD
:1017200000BF012084F83D000020D0E770477047DB
:101730002DE9F04F85B0054600243B4885426FD126
:101740004FF480713948FFF7BDF83948394B3A4AB0
:1017500000210090394800F0B1F906463448354B75
:10176000354A01210090364800F0A8F90746304874
:10177000304B314A02210090324800F09FF98046F8
:101780002B482C4B2C4A032100902F4800F096F94F
:10179000814641F270742D4800212D4B264ACDE937
:1017A0000104009104212B4800F0CDF9824642F259
:1017B000107429480121264B1F4ACDE901040091EC
:1017C0000521264800F0BFF9834644F25C442448D2
:1017D00002211F4B184ACDE901040091062121483E
:1017E00000F0B1F9049006EB090000EB80004FF423
:1017F000006101EB40010AEB0B02049810443844ED
:10180000404400EB80000844039000221146164833
:10181000039BFEF70BFF00211348FEF71DFF00BFDF
:1018200005B0BDE8F08F0000FC020020000002407F
:10183000280200200002002060010020F42100089E
:1018400054250008B42500082C260008E45D000893
:1018500030010020142C0008B0B90008FC31000849
:1018600054750008BC320008E8020020704700BF31
:10187000FEE710B50246002017E0002300EB8004CD
:1018800002F824305B1E00EB800402EB84046360EA
:10189000002300EB800402EB8404A36000EB8004CF
:1018A00002EB84046374431CD8B28842E5D310BDB4
:1018B00030B50378122B03DC03785B1C037004E063
:1018C0000023037043685B1C436083685B1C51F812
:1018D00023304468A3421DD1836851F823301BB9DB
:1018E00000231370C3600DE001241470846811F8A4
:1018F000243090F911401C44303C074D55F82440E9
:10190000C46000BF83689B1C11F823300374836894
:10191000DB1C836030BD0000000000201CB50020EF
:10192000009001900A480B4908600846FEF72AFE1D
:1019300008B1FEF7F3FD00200090019000226946F7
:101940000448FEF7EEFD08B1FEF7E8FD1CBD0000FF
:1019500000740040E802002000B587B0142102A8FE
:10196000FEF709FD00BF002001901748006840F015
:101970008000154908600846006800F0800001906A
:1019800000BF00BF00BF002001900846006840F083
:10199000010008600846006800F00100019000BFE7
:1019A00000BF002289150948FEF796FF4FF48070AA
:1019B00002900120039000200490059002A90348A2
:1019C000FEF786FE07B000BD30380240000002403E
:1019D00000B58DB0002009900A900B900C900790F4
:1019E00008901C216846FEF7C6FC1E481E49086088
:1019F0002720486000211C4881606321C1600021CC
:101A000001618161FFF728FC08B1FEF787FD4FF403
:101A10008050099009A91448FFF7CAFC08B1FEF7E5
:101A20007DFD1148FFF74FFE08B1FEF777FD00205E
:101A30000790089007A90C48FFF7B4FB08B1FEF720
:101A40006DFD302000900020019002900490002253
:101A500069460548FFF7FEFD08B1FEF75FFD0DB0D2
:101A600000BD000000040040FC02002000BFFEE7B3
:101A700000BFFEE770477047002204E000230370B8
:101A80004360531CDAB28A42F8D3704710B502465D
:101A90000B78012B0ED14B685B1C4B60D1E90134F4
:101AA000A34204D300234B600B70002005E04B6879
:101AB000D05602E000234B60002010BD2DE9F04716
:101AC00080460C4615461E46089F04EB440107EB72
:101AD000011101F1240204EB840105EB8100414670
:101AE000FFF7E6FE04EB840005EB8000808900B27E
:101AF00004EB840106EB4101C88004EB840106EB92
:101B0000410000F03BFA04EB440107EB0110FEF743
:101B100096FC04EB840005EB8000007C04EB4401A0
:101B200007EB0111C96A484342F21071B0FBF1F9A9
:101B300004EB840006EB4000B0F9080000FB09F05C
:101B4000000ABDE8F0872DE9F04706460F469046AB
:101B50001C46DDE9099A089D05EB450004EB800071
:101B6000C0F808A005EB450104EB810207EB8701F3
:101B700008EB81003146FFF79BFE05EB450004EBC7
:101B800080014846FFF782FFBDE8F08710B5FEF7F9
:101B9000AFFE10BD00B593B0302107A8FEF7EBFBF8
:101BA000142102A8FEF7E7FB00BF002001902548A2
:101BB000006840F08050234908600846006800F043
:101BC0008050019000BF00BF00BF002001901E4860
:101BD000006840F480401C4908600846006800F432
:101BE0008040019000BF00BF0220079001200A90B2
:101BF00010200B9002200D9000210E9108210F91D2
:101C0000A0211091022111910421129107A8FFF740
:101C10005FF808B1FEF782FC0F20029002200390CB
:101C2000002004904FF4A05005904FF4805006908F
:101C3000052102A8FEF732FF08B1FEF76FFC13B0D2
:101C400000BD0000403802400070004003480068BA
:101C500040F47000014908607047000088ED00E022
:101C600010B50248FFF72BFC10BD0000FC0200205D
:101C700010B50268294B98420ED0B0F1804F0BD0BE
:101C8000274B984208D0274B984205D0264B9842C4
:101C900002D0264B984203D122F070024B681A43BF
:101CA0001E4B984220D0B0F1804F1DD01C4B984263
:101CB0001AD01C4B984217D01B4B984214D01B4B88
:101CC000984211D01A4B98420ED01A4B98420BD022
:101CD000194B984208D0194B984205D0184B98429E
:101CE00002D0184B984203D122F44072CB681A43B9
:101CF00022F080034C6943EA040202608B68C362ED
:101D00000B688362054B984202D0084B984201D180
:101D10000B6903630123436110BD00000000014013
:101D20000004004000080040000C00400004014096
:101D300000400140004401400048014000180040BC
:101D4000001C00400020004030B50C46816821F4A2
:101D50007F4142EA032525432943816030BD0A467D
:101D6000816821F0700142F00703194381607047D8
:101D700030B5056A25F001050562026A4368846989
:101D800024F0700424F003040D682C4322F00202B6
:101D90008D682A43104DA84200D103E00F4DA842A0
:101DA00006D100BF22F00802CD682A4322F00402C7
:101DB000094DA84202D0094DA84207D123F48073EF
:101DC00023F400734D692B438D692B434360846179
:101DD0004D684563026230BD0000014000040140CF
:101DE00030B5056A25F010050562026A436884690A
:101DF00024F4E04424F440740D6844EA052422F0FD
:101E000020028D6842EA0512124DA84200D103E07B
:101E1000114DA84207D100BF22F08002CD6842EAEE
:101E2000051222F040020B4DA84202D00A4DA842F2
:101E300009D123F4806323F400634D6943EA8503E9
:101E40008D6943EA8503436084614D68856302625E
:101E500030BD0000000001400004014030B5056ABB
:101E600025F480750562026A4368C46924F0700431
:101E700024F003040D682C4322F400728D6842EABA
:101E80000522124DA84200D103E0114DA84207D10E
:101E900000BF22F40062CD6842EA052222F480628B
:101EA0000A4DA84202D00A4DA84209D123F480531A
:101EB00023F400534D6943EA05138D6943EA051382
:101EC0004360C4614D68C563026230BD00000140DB
:101ED0000004014030B5056A25F480550562036AA7
:101EE0004468C26922F4E04222F440720D6842EA7A
:101EF000052223F400538D6843EA0533084DA842B8
:101F000002D0084DA84204D124F480444D6944EA2B
:101F100085144460C2614D680564036230BD0000F1
:101F2000000001400004014030B50B461446026A2F
:101F3000056A25F001050562816921F0F00141EA99
:101F4000041122F00A021A438161026230BD30B5E9
:101F50000B461446056A25F0100505628169026A80
:101F600021F4704141EA043122F0A00242EA031256
:101F70008161026230BD00BFFEE700004288C38875
:101F80001A4411B244F61F62914203DBA1F59C4250
:101F9000213A00E00A4612B242800278062A45D26F
:101FA000DFE802F04403101D2A37B0F902201423A1
:101FB00092FBF3F212B28280B0F90420224B9A56BF
:101FC00002813FE0B0F90220142392FBF3F212B237
:101FD0008280B0F904201D4B9A56028132E0B0F99C
:101FE0000220142392FBF3F212B28280B0F9042093
:101FF000174B9A56028125E0B0F90220142392FB78
:10200000F3F212B28280B0F90420124B9A56028188
:1020100018E0B0F90220142392FBF3F212B282808E
:10202000B0F904200C4B9A5602810BE0B0F9022063
:10203000502392FBF3F212B2828082887D3A12B270
:10204000028100BF00BF7047EC320008BC3A0008B4
:1020500074460008444E0008145600080248006800
:10206000C0F30220704700000CED00E010B500281E
:1020700004DB0A07130E054A135406E00A07140E80
:10208000034A00F00F031B1FD45410BD00E400E00E
:1020900018ED00E0FEF738FCFFF77CFDFFF75CFC75
:1020A000FFF73CFCFFF794FC4948FEF77FFA4948EC
:1020B000FFF706F94748FFF727F904214648FFF7DD
:1020C000DBFC08214548FFF7D4FB00204449888009
:1020D000012048800420087000214148C18101216D
:1020E000818100203E49887200213D480183012101
:1020F000C18200203A4908750021394841840121F4
:102100000184032036498877012036490870002071
:1021100048704860052088604FF4FA60486140F6D6
:10212000B830C8600320886100200861C861FF20C2
:102130000862012081F8300000212A4880F831101F
:102140004163052181634FF4FA61416440F6B8317F
:10215000C163002181640164C164FF210165012024
:10216000204981F8600000211E4880F86110416616
:10217000052181664FF4FA61416740F6B831C166C6
:10218000002181670167C167FF21C0F8801001202D
:10219000144981F890000021124880F89110C0F88D
:1021A00094100521C0F898104FF4FA61C0F8A410FB
:1021B00040F6B831C0F89C100021C0F8A810C0F853
:1021C000A010C0F8AC10FF21C0F8B01000BFFEE7AF
:1021D000E8020020FC020020300100206001002005
:1021E00000020020280200204FF04070E1EE100AAB
:1021F000704700004C000000010000006400000077
:1022000000000000C7000000400000004500000082
:10221000C900000064000000000000008F01000001
:102220004000000048000000910100006400000030
:102230000000000057020000400000004C000000B9
:102240005902000064000000000000001F030000AD
:10225000400000004D000000210300006400000069
:1022600000000000E7030000400000004C000000F8
:10227000E90300006400000000000000AF0400005B
:10228000400000004A000000B104000064000000AB
:10229000000000007705000040000000480000003A
:1022A0007905000064000000000000003F06000007
:1022B00040000000470000004106000064000000EC
:1022C0000000000007070000400000004D00000073
:1022D000090700006400000000000000CF070000B4
:1022E000400000004C000000D10700006400000026
:1022F0000000000033080000400000004A00000019
:10230000350800006400000000000000970800008D
:102310004000000048000000990800006400000030
:1023200000000000FB080000400000004700000023
:10233000FD08000064000000000000005F090000CC
:102340004000000048000000610900006400000037
:1023500000000000270A0000400000004A000000C2
:10236000290A00006400000000000000EF0A0000DD
:10237000400000004C000000F10A00006400000072
:1023800000000000B70B0000400000004C000000FF
:10239000800C00006400000000000000470D0000F9
:1023A0004000000045000000490D000064000000EE
:1023B000000000000F0E0000400000004800000078
:1023C000110E00006400000000000000D70E0000A5
:1023D000400000004C000000D90E00006400000026
:1023E000000000009F0F0000400000004D000000B2
:1023F000A10F000064000000000000006710000052
:10240000400000004C000000691000006400000063
:10241000000000002F110000400000004A000000F2
:10242000311100006400000000000000F7110000FE
:102430004000000048000000F911000064000000A6
:1024400000000000BF120000400000004400000037
:10245000C11200006400000000000000EB13000047
:102460004000000045000000ED1300006400000083
:1024700000000000171500004000000047000000A9
:10248000191500006400000000000000DF150000C6
:102490004000000045000000E1150000640000005D
:1024A000000000004316000040000000470000004C
:1024B000451600006400000000000000A7160000A0
:1024C0004000000048000000A91600006400000061
:1024D000000000000B170000400000004A00000050
:1024E0000D17000064000000000000006F170000DE
:1024F000400000004C000000711700006400000064
:1025000000000000D3170000400000004A00000057
:10251000D51700006400000000000000371800001C
:10252000400000004700000039180000640000006F
:10253000000000009B180000400000004500000063
:102540009D1800006400000000000000FF1800005B
:10255000400000003900000001000000640000009D
:10256000000000001F030000400000003B000000CE
:102570004006000064000000000000005F09000049
:10258000400000003C000000800C000064000000DF
:10259000000000009F0F0000400000003E0000000F
:1025A000C01200006400000000000000DF15000001
:1025B000400000003C00000001000000640000003A
:1025C000000000001F030000400000004000000069
:1025D0004006000064000000000000005F090000E9
:1025E0004000000040000000800C0000640000007B
:1025F000000000009F0F00004000000041000000AC
:10260000C01200006400000000000000DF150000A0
:102610004000000040000000E115000064000000E0
:1026200000000000FF18000040000000390000001A
:1026300001000000640000000000000063000000D2
:10264000400000003C000000650000006400000045
:1026500000000000C7000000400000004000000033
:10266000C900000064000000000000002B01000011
:1026700040000000450000002D0100006400000043
:10268000000000008F01000040000000400000003A
:10269000910100006400000000000000F301000050
:1026A000400000003C000000F50100006400000054
:1026B0000000000057020000400000003900000048
:1026C000590200006400000000000000BB0200008E
:1026D000400000003C000000BD020000640000005B
:1026E000000000001F030000400000004000000048
:1026F00021030000640000000000000083030000CC
:102700004000000045000000850300006400000058
:1027100000000000E703000040000000400000004F
:10272000E903000064000000000000004B0400000A
:10273000400000003C0000004D0400006400000068
:1027400000000000AF04000040000000390000005D
:10275000B104000064000000000000001305000048
:10276000400000003C00000015050000640000006F
:10277000000000007705000040000000400000005D
:10278000790500006400000000000000DB05000087
:102790004000000045000000DD050000640000006E
:1027A000000000003F060000400000004000000064
:1027B000410600006400000000000000A3060000C5
:1027C000400000003B000000A5060000640000007F
:1027D0000000000007070000400000003800000073
:1027E0000907000064000000000000006B07000003
:1027F000400000003E0000006D0700006400000083
:1028000000000000CF070000400000004000000072
:10281000D107000064000000000000003308000041
:102820004000000043000000350800006400000084
:102830000000000097080000400000004000000079
:10284000990800006400000000000000FB08000080
:10285000400000003E000000FD0800006400000091
:10286000000000005F090000400000003800000088
:10287000610900006400000000000000C3090000BE
:10288000400000003E000000C50900006400000098
:1028900000000000270A0000400000004000000087
:1028A000290A000064000000000000008B0A0000FC
:1028B00040000000430000008D0A0000640000009A
:1028C00000000000EF0A000040000000400000008F
:1028D000F10A00006400000000000000530B00003B
:1028E000400000003E000000B80B00006400000043
:1028F000000000001B0C0000400000003800000039
:102900001D0C000064000000000000007F0C0000AF
:10291000400000003C000000810C0000640000004A
:1029200000000000E30C0000400000004000000038
:10293000E50C00006400000000000000470D0000EE
:10294000400000003C000000490D00006400000051
:1029500000000000AB0D0000400000003700000048
:10296000AD0D000064000000000000000F0E00002C
:10297000400000003C000000110E00006400000058
:1029800000000000730E0000400000004000000046
:10299000750E00006400000000000000D70E00006B
:1029A000400000003C000000D90E00006400000060
:1029B000000000003B0F0000400000003700000056
:1029C0003D0F000064000000000000009F0F0000A9
:1029D000400000003C000000A10F00006400000067
:1029E0000000000003100000400000004000000054
:1029F00005100000640000000000000067100000E7
:102A0000400000003C00000069100000640000006D
:102A100000000000CB100000400000003700000064
:102A2000CD10000064000000000000002F11000025
:102A3000400000003C000000311100006400000074
:102A40000000000093110000400000004000000062
:102A5000951100006400000000000000F711000064
:102A6000400000003C000000F9110000640000007C
:102A7000000000005B120000400000003700000072
:102A80005D1200006400000000000000BF120000A2
:102A90004000000038000000C11200006400000087
:102AA0000000000023130000400000003E00000072
:102AB00025130000640000000000000087130000E0
:102AC0004000000040000000891300006400000086
:102AD00000000000EB130000400000003E0000007A
:102AE000ED13000064000000000000004F1400001F
:102AF0004000000038000000511400006400000095
:102B000000000000B3140000400000003E00000080
:102B1000B51400006400000000000000171500005C
:102B20004000000040000000191500006400000093
:102B3000000000007B150000400000003E00000087
:102B40007D1500006400000000000000DF1500009B
:102B50004000000039000000E115000064000000A2
:102B60000000000043160000400000003C00000090
:102B7000451600006400000000000000A7160000D9
:102B80004000000040000000A916000064000000A2
:102B9000000000000B170000400000003C00000097
:102BA0000D17000064000000000000006F17000017
:102BB00040000000390000007117000064000000B0
:102BC00000000000D3170000400000003C0000009F
:102BD000D517000064000000000000003718000056
:102BE00040000000400000003918000064000000B0
:102BF000000000009B180000400000003C000000A6
:102C00009D1800006400000000000000FF18000094
:102C100040000000390000000100000064000000D6
:102C20000000000063000000400000003C000000C5
:102C3000650000006400000000000000C700000004
:102C40004000000040000000C900000064000000D7
:102C5000000000002B0100004000000045000000C3
:102C60002D01000064000000000000008F01000042
:102C700040000000400000009101000064000000DE
:102C800000000000F3010000400000003C000000D4
:102C9000F501000064000000000000005702000081
:102CA00040000000390000005902000064000000EC
:102CB00000000000BB020000400000003C000000DB
:102CC000BD02000064000000000000001F030000BF
:102CD00040000000400000002103000064000000EC
:102CE00000000000830300004000000045000000D9
:102CF000850300006400000000000000E7030000FE
:102D00004000000040000000E903000064000000F3
:102D1000000000004B040000400000003C000000E8
:102D20004D0400006400000000000000AF0400003B
:102D30004000000039000000B10400006400000001
:102D40000000000013050000400000003C000000EF
:102D50001505000064000000000000007705000079
:102D60004000000040000000790500006400000001
:102D700000000000DB0500004000000045000000EE
:102D8000DD05000064000000000000003F060000B8
:102D90004000000040000000410600006400000008
:102DA00000000000A3060000400000003B000000FF
:102DB000A5060000640000000000000007070000F6
:102DC0004000000038000000090700006400000017
:102DD000000000006B070000400000003E00000003
:102DE0006D0700006400000000000000CF07000035
:102DF0004000000040000000D10700006400000017
:102E00000000000033080000400000004300000004
:102E10003508000064000000000000009708000072
:102E2000400000004000000099080000640000001D
:102E300000000000FB080000400000003E00000011
:102E4000FD08000064000000000000005F090000B1
:102E5000400000003800000061090000640000002C
:102E600000000000C3090000400000003E00000018
:102E7000C50900006400000000000000270A0000EF
:102E80004000000040000000290A0000640000002B
:102E9000000000008B0A000040000000430000001A
:102EA0008D0A00006400000000000000EF0A00002E
:102EB0004000000040000000F10A00006400000033
:102EC00000000000530B0000400000003E00000026
:102ED000B80B000064000000000000001B0C0000A4
:102EE00040000000380000001D0C000064000000DD
:102EF000000000007F0C0000400000003C000000CB
:102F0000810C00006400000000000000E30C0000E1
:102F10004000000040000000E50C000064000000DC
:102F200000000000470D0000400000003C000000D1
:102F3000490D00006400000000000000AB0D00001F
:102F40004000000037000000AD0D000064000000EC
:102F5000000000000F0E0000400000003C000000D8
:102F6000110E00006400000000000000730E00005D
:102F70004000000040000000750E000064000000EA
:102F800000000000D70E0000400000003C000000E0
:102F9000D90E000064000000000000003B0F00009C
:102FA00040000000370000003D0F000064000000FA
:102FB000000000009F0F0000400000003C000000E7
:102FC000A10F0000640000000000000003100000DA
:102FD00040000000400000000510000064000000F8
:102FE0000000000067100000400000003C000000EE
:102FF000691000006400000000000000CB10000019
:103000004000000037000000CD1000006400000008
:10301000000000002F110000400000003C000000F4
:103020003111000064000000000000009311000056
:103030004000000040000000951100006400000006
:1030400000000000F7110000400000003C000000FC
:10305000F911000064000000000000005B12000095
:1030600040000000370000005D1200006400000016
:1030700000000000BF120000400000003800000007
:10308000C1120000640000000000000023130000D3
:10309000400000003E000000251300006400000016
:1030A0000000000087130000400000004000000006
:1030B000891300006400000000000000EB13000012
:1030C000400000003E000000ED130000640000001E
:1030D000000000004F140000400000003800000015
:1030E000511400006400000000000000B314000050
:1030F000400000003E000000B51400006400000025
:103100000000000017150000400000004000000013
:103110001915000064000000000000007B1500008D
:10312000400000003E0000007D150000640000002B
:1031300000000000DF150000400000003900000022
:10314000E1150000640000000000000043160000CC
:10315000400000003C000000451600006400000034
:1031600000000000A7160000400000004000000022
:10317000A916000064000000000000000B1700000A
:10318000400000003C0000000D170000640000003B
:10319000000000006F170000400000003900000030
:1031A000711700006400000000000000D317000049
:1031B000400000003C000000D51700006400000043
:1031C0000000000037180000400000004000000030
:1031D0003918000064000000000000009B18000087
:1031E000400000003C0000009D180000640000004A
:1031F00000000000FF180000400000003000000048
:103200000100000064000000000000008F010000C9
:1032100040000000300000002003000064000000B7
:1032200000000000AF04000040000000300000007B
:10323000400600006400000000000000CF0700000E
:103240004000000030000000600900006400000041
:1032500000000000EF0A0000400000003000000005
:10326000800C000064000000000000000F0E000051
:103270004000000030000000A00F000064000000CB
:10328000000000002F11000040000000300000008E
:10329000C012000064000000000000004F14000095
:1032A0004000000030000000E01500006400000055
:1032B000000000006F170000400000003400000014
:1032C0000100000064000000000000008F01000009
:1032D0004000000034000000800C0000640000008A
:1032E000000000000F0E000040000000000102037B
:1032F00003040506070708090A0B0B0C0D0E0F0F38
:103300001011121313141516171718191A1A1B1C5B
:103310001D1E1E1F20212122232424252627282884
:10332000292A2B2B2C2D2E2E2F30303132333334B3
:10333000353636373838393A3B3B3C3D3D3E3F3FEA
:1033400040414242434444454646474848494A4A28
:103350004B4B4C4D4D4E4F4F505051525253535476
:103360005555565657585859595A5A5B5C5C5D5DCD
:103370005E5E5F5F60606161626263636464656535
:103380006666676768686969696A6A6B6B6C6C6CAA
:103390006D6D6E6E6E6F6F70707071717172727232
:1033A00073737374747475757576767676777777CC
:1033B0007878787879797979797A7A7A7A7B7B7B77
:1033C0007B7B7B7C7C7C7C7C7C7D7D7D7D7D7D7D39
:1033D0007D7D7E7E7E7E7E7E7E7E7E7E7E7E7E7E0F
:1033E0007E7E7E7E7E7E7E7E7E7E7E7E7E7E7E7EFD
:1033F0007E7E7E7E7E7E7E7E7E7D7D7D7D7D7D7DF4
:103400007D7D7C7C7C7C7C7C7B7B7B7B7B7B7A7A04
:103410007A7A79797979797878787877777776762A
:103420007676757575747474737373727272717164
:10343000717070706F6F6E6E6E6D6D6C6C6C6B6BAF
:103440006A6A69696968686767666665656464630E
:10345000636262616160605F5F5E5E5D5D5C5C5B7C
:103460005A5A5959585857565655555453535252FB
:103470005150504F4F4E4D4D4C4B4B4A4A49484886
:1034800047464645444443424241403F3F3E3D3D1E
:103490003C3B3B3A393838373636353433333231C2
:1034A00030302F2E2E2D2C2B2B2A2928282726256D
:1034B000242423222121201F1E1E1D1C1B1A1A1921
:1034C00018171716151413131211100F0F0E0D0CD9
:1034D0000B0B0A0908070706050403030201000095
:1034E00000FFFEFDFDFCFBFAF9F9F8F7F6F5F5F43F
:1034F000F3F2F1F1F0EFEEEDEDECEBEAE9E9E8E7FC
:10350000E6E6E5E4E3E2E2E1E0DFDFDEDDDCDCDBB2
:10351000DAD9D8D8D7D6D5D5D4D3D2D2D1D0D0CF66
:10352000CECDCDCCCBCACAC9C8C8C7C6C5C5C4C311
:10353000C3C2C1C1C0BFBEBEBDBCBCBBBABAB9B8B4
:10354000B8B7B6B6B5B5B4B3B3B2B1B1B0B0AFAE4B
:10355000AEADADACABABAAAAA9A8A8A7A7A6A6A5D5
:10356000A4A4A3A3A2A2A1A1A0A09F9F9E9E9D9D53
:103570009C9C9B9B9A9A99999898979797969695C1
:1035800095949494939392929291919090908F8F1E
:103590008F8E8E8E8D8D8D8C8C8C8B8B8B8A8A8A68
:1035A0008A898989888888888787878787868686A1
:1035B00086858585858585848484848484838383C6
:1035C00083838383838382828282828282828282D5
:1035D00082828282828282828282828282828282CB
:1035E00082828282828282828282828282838383B8
:1035F000838383838383848484848484858585858D
:10360000858586868686878787878788888888894C
:1036100089898A8A8A8A8B8B8B8C8C8C8D8D8D8EF6
:103620008E8E8F8F8F90909091919292929393948F
:10363000949495959696979797989899999A9A9B16
:103640009B9C9C9D9D9E9E9F9FA0A0A1A1A2A2A38A
:10365000A3A4A4A5A6A6A7A7A8A8A9AAAAABABACF1
:10366000ADADAEAEAFB0B0B1B1B2B3B3B4B5B5B647
:10367000B6B7B8B8B9BABABBBCBCBDBEBEBFC0C194
:10368000C1C2C3C3C4C5C5C6C7C8C8C9CACACBCCD2
:10369000CDCDCECFD0D0D1D2D2D3D4D5D5D6D7D808
:1036A000D8D9DADBDCDCDDDEDFDFE0E1E2E2E3E437
:1036B000E5E6E6E7E8E9E9EAEBECEDEDEEEFF0F15F
:1036C000F1F2F3F4F5F5F6F7F8F9F9FAFBFCFDFD84
:1036D000FEFF00007D7D7D7D7D7D7D7D7D7D7D7D11
:1036E0007D7D7D7D7D7D7D7D7C7C7C7C7C7C7C7C12
:1036F0007B7B7B7B7B7B7A7A7A7A7A7A7979797928
:10370000787878787877777777767676767575754E
:103710007474747373737272727271717070706F8B
:103720006F6F6E6E6E6D6D6C6C6C6B6B6A6A6969D7
:103730006968686767666665656464646363626236
:10374000616160605F5F5E5D5D5C5C5B5B5A5A59A6
:103750005958575756565555545353525251505025
:103760004F4F4E4D4D4C4B4B4A4A494848474646B1
:103770004544444342424140403F3E3E3D3C3C3B49
:103780003A39393837373635343433323231302FED
:103790002F2E2D2C2C2B2A29292827262625242399
:1037A00023222120201F1E1D1D1C1B1A191918174A
:1037B0001616151413121211100F0F0E0D0C0B0B01
:1037C0000A0908070706050403030201000000FFB9
:1037D000FEFDFDFCFBFAF9F9F8F7F6F5F5F4F3F266
:1037E000F1F1F0EFEEEEEDECEBEAEAE9E8E7E7E61F
:1037F000E5E4E3E3E2E1E0E0DFDEDDDDDCDBDADAD5
:10380000D9D8D7D7D6D5D4D4D3D2D1D1D0CFCECE84
:10381000CDCCCCCBCAC9C9C8C7C7C6C5C4C4C3C22E
:10382000C2C1C0C0BFBEBEBDBCBCBBBABAB9B8B8CD
:10383000B7B6B6B5B5B4B3B3B2B1B1B0B0AFAEAE62
:10384000ADADACABABAAAAA9A9A8A7A7A6A6A5A5EA
:10385000A4A4A3A3A2A1A1A0A09F9F9E9E9D9D9C66
:103860009C9C9B9B9A9A99999898979797969695CE
:103870009594949493939292929191919090908F29
:103880008F8E8E8E8E8D8D8D8C8C8C8B8B8B8A8A71
:103890008A8A8989898988888888888787878786A6
:1038A00086868686868585858585858484848484C8
:1038B00084848483838383838383838383838383D5
:1038C00083838383838383838383838383838383C8
:1038D00083838383838383838383838384848484B4
:1038E0008484848485858585858586868686868686
:1038F000878787878888888888898989898A8A8A42
:103900008A8B8B8B8C8C8C8D8D8D8E8E8E8E8F8FEB
:103910009090909191919292929393949494959582
:103920009696979797989899999A9A9B9B9C9C9C06
:103930009D9D9E9E9F9FA0A0A1A1A2A3A3A4A4A57C
:10394000A5A6A6A7A7A8A9A9AAAAABABACADADAEE0
:10395000AEAFB0B0B1B1B2B3B3B4B5B5B6B6B7B837
:10396000B8B9BABABBBCBCBDBEBEBFC0C0C1C2C282
:10397000C3C4C4C5C6C7C7C8C9C9CACBCCCCCDCEC1
:10398000CECFD0D1D1D2D3D4D4D5D6D7D7D8D9DAF7
:10399000DADBDCDDDDDEDFE0E0E1E2E3E3E4E5E627
:1039A000E7E7E8E9EAEAEBECEDEEEEEFF0F1F1F251
:1039B000F3F4F5F5F6F7F8F9F9FAFBFCFDFDFEFF77
:1039C00000000001020303040506070708090A0BAB
:1039D0000B0C0D0E0F0F10111212131415161617D3
:1039E0001819191A1B1C1D1D1E1F202021222323FC
:1039F00024252626272829292A2B2C2C2D2E2F2F2B
:103A000030313232333434353637373839393A3B5E
:103A10003C3C3D3E3E3F404041424243444445469B
:103A200046474848494A4A4B4B4C4D4D4E4F4F50E4
:103A30005051525253535455555656575758595939
:103A40005A5A5B5B5C5C5D5D5E5F5F60606161629A
:103A5000626363646464656566666767686869690C
:103A6000696A6A6B6B6C6C6C6D6D6E6E6E6F6F6F8E
:103A70007070707171727272727373737474747522
:103A800075757676767677777777787878787879C7
:103A90007979797A7A7A7A7A7A7B7B7B7B7B7B7C81
:103AA0007C7C7C7C7C7C7C7D7D7D7D7D7D7D7D7D4D
:103AB0007D7D7D7D7D7D7D7D7D7D7D7D73BC1BFDE3
:103AC0006443F68652F31D4A6C3DAEE96F6AEA64C0
:103AD00090DB5084A5B5B41AC7B4853FF36EF8ECFB
:103AE0005806B52C56872EE2550135EFCFB2B32ECE
:103AF000CF0BA832E25C5A18006652255129D9CB67
:103B0000D9093AD05611E0340CF3321F4B740661D8
:103B1000AE7AC7C2603DA48464B4CE29CAF9927D4E
:103B200015ED04D7F0BB14420824B7E2482EF71174
:103B30004B911A8EEBCF5F8544787D4AF100B82512
:103B4000D3753AEB3EC6F26F2FB85721A4B61B21AE
:103B5000E013F58D88D185E32F998B1D1C8686B2E5
:103B60001690DF22373197F5F2DCA92D333AFB0EA0
:103B7000A0F43764C7C25DBD4E68BDBF8E9524B248
:103B800058AEAD7EF2D8D2DFE617A08BF65E6FC5D9
:103B9000AA5FBE25772A5E84A451EF643C30DAAC7C
:103BA000A9B2ED5BFF51F7F6F4EB6683CD8E3126BB
:103BB0007B0DE8B4203CE184ED414B6B58DF1F3BAB
:103BC000B3671222BD0C6ED728E52033E7EB2856E9
:103BD000E0EE1811370346FEB1337B4E34FD9F2AC9
:103BE000DFA511522C7F7691DD0CC4198E1233762D
:103BF000403DF0224D97726A1AC25F033BED769406
:103C00000ECC5BD72E8FDC00F0101E9E66414A5012
:103C10002BB5C720099198C7EAFA6819D5FB19ABEB
:103C200054741889501C3399EEE1AC5556F574A7BD
:103C30005E45F31F7324C1DBB1FFEAF81C94D21C6C
:103C4000AE1FC01602F80B71D9E8D0EACAE60139F6
:103C5000D09EF3F9852A39C9C435487CFA67F54EF8
:103C600054ACE6053812F7F398F3DFCF5A42730FDE
:103C70008519517ABA34066E36BCF4AD78DC8E41C3
:103C800065CAC26EA3703359B7F6965A10D3E15E77
:103C9000E094B48E11A1069F45E1528D1973CB6358
:103CA0009B92BD6E92C57FB800CC2C75442AA39A16
:103CB00085CB517C86511F0FC052C54129B81A1BB4
:103CC00029B023AD0A1F2F2D6085D147D06D2E94CA
:103CD0009485BB04F634150294B3E2C845D2237C24
:103CE0000172546A9E5068A9A1433927412A62C7CC
:103CF000ECB88B9659D8F86ABC5C2864FE7EE10863
:103D0000B000ED292C75B29E1178885E8805B33716
:103D1000C16FA4066571D7F1FAA8A4083AE7DDCA15
:103D20005E20BF7A24BC2E2AA487C49F935AAF8AF0
:103D30003C09C8DF85635DC212AA18D6285D117BD5
:103D40004AA855B2232B45E2F2FD1CAE824A03B8C5
:103D50009CAAE9E98F71A8E4D1AC65D43CEAE701FB
:103D6000AD062486564D32F79752B3F385D0605591
:103D7000D661FC101E291E2F0337041B7752D31661
:103D8000A3C24D2B8510F567C992FB7B6C102746AB
:103D90009D820B83F5B3491E8564436842E3D601D7
:103DA000104447FD4DFAB5142A2D71453D5D7D0146
:103DB000214BF406ADA3B99CA6F649C9BB6883178D
:103DC0000B27D1BCECCE2C70D910A0ADC90EFD7361
:103DD000BDFC074BB3686C854472506CB42C6DD934
:103DE000181D827B6631F2331CCE5B9ECC9AE7D6DF
:103DF0007156C38C83133E4E23C2A62772516ED1D7
:103E0000C609ABB7B9278FBC2BD1D03874A393A107
:103E1000AC69A41EC6BA360C71D63471156140E285
:103E20003AAB74B4461DAB89CB7873BC752E901930
:103E3000E6B8B095834A8660DB3977A9ABD189DDD6
:103E4000884B7F9E1FA3D1A4BAE7A4BF6DE5039959
:103E500087AA5861B17D365FFC00CB91C4B16AA1DD
:103E600085E0336318A9D2BD84E7269745783748A3
:103E7000BEB3C5377A230C594D2B2C5278FE5124F2
:103E8000D029DD70FE992C04BA399376B6AB238223
:103E9000D7C88D99EA515E873A593A74283ED9625B
:103EA000DA913875FF00FE00FD00FC00FC00FB000D
:103EB000FA00F900F800F800F700F600F500F40049
:103EC000F400F300F200F100F100F000EF00EE006A
:103ED000EE00ED00EC00EB00EB00EA00E900E8008A
:103EE000E800E700E600E600E500E400E300E300A8
:103EF000E200E100E100E000DF00DE00DE00DD00C6
:103F0000DC00DC00DB00DA00DA00D900D800D800E1
:103F1000D700D600D600D500D400D400D300D200FC
:103F2000D200D100D000D000CF00CE00CE00CD0016
:103F3000CC00CC00CB00CA00CA00C900C800C80031
:103F4000C700C700C600C500C500C400C400C30048
:103F5000C200C200C100C000C000BF00BF00BE0060
:103F6000BD00BD00BC00BC00BB00BA00BA00B90077
:103F7000B900B800B800B700B600B600B500B5008B
:103F8000B400B400B300B200B200B100B100B000A0
:103F9000B000AF00AF00AE00AD00AD00AC00AC00B3
:103FA000AB00AB00AA00AA00A900A900A800A800C5
:103FB000A700A600A600A500A500A400A400A300D9
:103FC000A300A200A200A100A100A000A0009F00E9
:103FD0009F009E009E009D009D009C009C009B00F9
:103FE0009B009A009A009900990098009800970009
:103FF0009700970096009600950095009400940015
:104000009300930092009200910091009000900024
:1040100090008F008F008E008E008D008D008C0030
:104020008C008C008B008B008A008A00890089003C
:104030008900880088008700870086008600860047
:104040008500850084008400830083008300820053
:104050008200810081008100800080007F007F005D
:104060007F007E007E007D007D007D007C007C0066
:104070007B007B007B007A007A0079007900790070
:104080007800780078007700770076007600760078
:104090007500750075007400740073007300730080
:1040A0007200720072007100710071007000700087
:1040B00070006F006F006E006E006E006D006D008E
:1040C0006D006C006C006C006B006B006B006A0094
:1040D0006A006A0069006900690068006800680099
:1040E000670067006700660066006600650065009F
:1040F00065006500640064006400630063006300A1
:1041000062006200620061006100610060006000A6
:10411000600060005F005F005F005E005E005E00A8
:104120005D005D005D005D005C005C005C005B00AC
:104130005B005B005B005A005A005A0059005900AE
:1041400059005900580058005800570057005700B0
:1041500057005600560056005600550055005500B1
:1041600054005400540054005300530053005300B3
:1041700052005200520052005100510051005100B3
:1041800050005000500050004F004F004F004F00B3
:104190004E004E004E004E004D004D004D004D00B3
:1041A0004C004C004C004C004B004B004B004B00B3
:1041B0004A004A004A004A004A00490049004900B2
:1041C00049004800480048004800470047004700B1
:1041D00047004700460046004600460045004500AF
:1041E00045004500450044004400440044004300AD
:1041F00043004300430043004200420042004200AB
:1042000042004100410041004100410040004000A7
:104210004000400040003F003F003F003F003F00A3
:104220003E003E003E003E003E003D003D003D00A1
:104230003D003D003C003C003C003C003C003B009D
:104240003B003B003B003B003B003A003A003A0099
:104250003A003A0039003900390039003900390094
:104260003800380038003800380037003700370091
:10427000370037003700360036003600360036008B
:104280003600350035003500350035003500340086
:104290003400340034003400340033003300330081
:1042A000330033003300320032003200320032007B
:1042B0003200310031003100310031003100310075
:1042C0003000300030003000300030002F002F0070
:1042D0002F002F002F002F002F002E002E002E0069
:1042E0002E002E002E002E002D002D002D002D0062
:1042F0002D002D002D002C002C002C002C002C005B
:104300002C002C002B002B002B002B002B002B0053
:104310002B002A002A002A002A002A002A002A004C
:104320002A00290029002900290029002900290044
:10433000290028002800280028002800280028003C
:104340002700270027002700270027002700270035
:10435000260026002600260026002600260026002D
:104360002600250025002500250025002500250024
:10437000250024002400240024002400240024001C
:104380002400240023002300230023002300230013
:10439000230023002300220022002200220022000A
:1043A0002200220022002200210021002100210001
:1043B00021002100210021002100210020002000F7
:1043C00020002000200020002000200020001F00EE
:1043D0001F001F001F001F001F001F001F001F00E5
:1043E0001F001F001E001E001E001E001E001E00DB
:1043F0001E001E001E001E001D001D001D001D00D1
:104400001D001D001D001D001D001D001D001C00C5
:104410001C001C001C001C001C001C001C001C00BC
:104420001C001C001B001B001B001B001B001B00B2
:104430001B001B001B001B001B001A001A001A00A7
:104440001A001A001A001A001A001A001A001A009C
:104450001A001A0019001900190019001900190092
:104460001900190019001900190019001800180086
:10447000180018001800180018001800180018007C
:104480001800180018001700170017001700170071
:104490001700170017001700170017001700170064
:1044A000170016001600160016001600160016005B
:1044B000160016001600160016001600160015004D
:1044C0001500150015001500150015001500150044
:1044D0001500150015001500150014001400140037
:1044E000140014001400140014001400140014002C
:1044F000140014001400140014001300130013001F
:104500001300130013001300130013001300130013
:104510001300130013001300130012001200120006
:1045200012001200120012001200120012001200FB
:1045300012001200120012001200120012001100EC
:1045400011001100110011001100110011001100E3
:1045500011001100110011001100110011001100D3
:1045600011001000100010001000100010001000CA
:1045700010001000100010001000100010001000BB
:1045800010001000100010000F000F000F000F00AF
:104590000F000F000F000F000F000F000F000F00A3
:1045A0000F000F000F000F000F000F000F000F0093
:1045B0000F000E000E000E000E000E000E000E008A
:1045C0000E000E000E000E000E000E000E000E007B
:1045D0000E000E000E000E000E000E000E000D006C
:1045E0000D000D000D000D000D000D000D000D0063
:1045F0000D000D000D000D000D000D000D000D0053
:104600000D000D000D000D000D000D000C000C0044
:104610000C000C000C000C000C000C000C000C003A
:104620000C000C000C000C000C000C000C000C002A
:104630000C000C000C000C000C000C000C000C001A
:104640000B000B000B000B000B000B000B000B0012
:104650000B000B000B000B000B000B000B000B0002
:104660000B000B000B000B000B000B000B000B00F2
:104670000B000B00DAFFD8FFD7FFD7FFD8FFD9FF19
:10468000DBFFDEFFE0FFE3FFE6FFE9FFECFFEFFF0C
:10469000F2FFF4FFF6FFF8FFFAFFFDFFFFFF000057
:1046A0000300060009000C001000130016001A0099
:1046B0001D00200022002500270029002A002C00D0
:1046C0002D002E002F003000320033003300340064
:1046D0003500360037003700380038003800380021
:1046E0003800380038003700360036003500340016
:1046F0003300310030002F002D002C002A0028004C
:1047000026002400220020001D001B0018001600B7
:10471000130011000E000C00090006000400010047
:10472000FFFFFDFFFAFFF7FFF5FFF2FFEFFFEDFFE1
:10473000EAFFE8FFE5FFE3FFE0FFDEFFDCFFDAFF73
:10474000D8FFD7FFD5FFD4FFD3FFD2FFD1FFD1FFD2
:10475000D0FFD0FFD1FFD1FFD2FFD3FFD4FFD5FFD1
:10476000D7FFD8FFDAFFDCFFDEFFE0FFE3FFE5FF66
:10477000E8FFEAFFEDFFEFFFF2FFF5FFF7FFFAFFBB
:10478000FDFFFFFF01000300060008000B000D0005
:1047900010001200150017001A001C001E00210056
:1047A0002300250028002A002C002E0031003300B1
:1047B0003500370039003B003C003E00400041001E
:1047C00043004400450046004700480049004A00B5
:1047D0004A004B004B004B004C004C004B004B0080
:1047E0004B004B004A004900490048004700460082
:1047F00044004300420041003F003E003C003B00BB
:104800003900380037003500340033003100300003
:104810002F002E002D002C002C002B002A002A0037
:104820002A00290029002900290029002A002A003D
:104830002A002B002B002C002C002D002E002F0016
:1048400030003100320033003500360038003900C6
:104850003B003D003F00410042004400470049004A
:104860004B004D004F0051005300560058005A00B5
:104870005C005E005F006100630065006600680028
:1048800069006A006C006D006E006F0070007100BE
:10489000710072007300730074007400750075007D
:1048A0007600760076007600770077007700770054
:1048B000770077007700780078007800780078003B
:1048C000780078007800780078007800770077002A
:1048D0007700770077007700760076007600750025
:1048E00075007400740073007200710070006F0036
:1048F0006E006D006B006A0069006700650064006F
:10490000620060005F005D005B005A0058005700C5
:10491000550054005300510050004F004E004D0010
:104920004C004B004A004900480047004600450043
:1049300044004300420041003F003E003C003A007A
:10494000380037003500320030002E002C002900DE
:104950002700240022001F001D001A001800150067
:1049600012000F000D000A00070004000100FFFF05
:10497000FCFFF9FFF5FFF2FFEEFFEAFFE7FFE3FFC1
:10498000DFFFDBFFD6FFD2FFCEFFCAFFC5FFC1FFAF
:10499000BCFFB8FFB4FFB0FFACFFA8FFA4FFA1FFAE
:1049A0009DFF9AFF97FF95FF92FF90FF8EFF8CFF70
:1049B0008BFF8AFF88FF88FF87FF86FF86FF86FFC1
:1049C00086FF85FF85FF86FF86FF86FF86FF86FFC1
:1049D00087FF87FF87FF87FF87FF87FF87FF87FFA7
:1049E00087FF87FF87FF87FF87FF87FF86FF86FF99
:1049F00086FF86FF85FF85FF85FF84FF84FF84FF98
:104A000083FF83FF83FF82FF82FF82FF82FF81FF9C
:104A100081FF81FF81FF81FF81FF80FF81FF81FF97
:104A200081FF81FF81FF81FF81FF81FF82FF82FF84
:104A300082FF83FF83FF83FF83FF84FF84FF84FF64
:104A400084FF85FF85FF85FF85FF85FF86FF86FF45
:104A500086FF86FF86FF86FF86FF86FF86FF87FF2D
:104A600087FF87FF87FF87FF87FF87FF87FF87FF16
:104A700087FF87FF87FF87FF87FF86FF86FF86FF09
:104A800086FF86FF86FF86FF86FF86FF85FF85FF00
:104A900085FF85FF85FF85FF85FF86FF86FF86FFF3
:104AA00086FF86FF86FF86FF86FF86FF87FF87FFDC
:104AB00087FF87FF87FF87FF87FF87FF87FF87FFC6
:104AC00087FF87FF87FF88FF88FF88FF89FF89FFAF
:104AD0008AFF8BFF8DFF8EFF90FF92FF94FF96FF62
:104AE00099FF9CFFA0FFA4FFA8FFACFFB1FFB6FF9A
:104AF000BBFFC1FFC6FFCCFFD2FFD9FFDFFFE5FF41
:104B0000ECFFF2FFF9FFFFFF05000B00110017009B
:104B10001D00230029002E00340039003E00430010
:104B200047004B004F00530057005A005E006100E1
:104B30006300660069006B006D006F007100720019
:104B400074007500760077007800780079007900AD
:104B50007A007A007A007A007A007A007A007A0085
:104B60007A0079007900790079007900790079007C
:104B70007900790079007900790079007A007A006B
:104B80007A007B007B007B007C007C007C007D0049
:104B90007D007E007E007E007E007F007F007F0023
:104BA0007F007F007F007F007F007F007F007F000D
:104BB0007E007E007E007E007D007D007D007C000A
:104BC0007C007C007B007B007A007A007A007A000F
:104BD000790079007900790079007900790079000D
:104BE00079007900790079007900790079007A00FC
:104BF0007A007A007A007A007A007A007A007A00E5
:104C00007A007A007A007A007900790079007900D8
:104C100079007800780078007800780078007800D3
:104C200078007800780078007800790079007900C1
:104C3000790079007A007A007A007A0079007900A8
:104C400079007800770076007500740072007000BB
:104C50006F006C006A006800650062005F005C0025
:104C600059005600530050004C00490046004300D4
:104C700040003D003A0037003500320030002D0082
:104C80002B00290027002500230021001F001D0004
:104C90001C001A0019001700150014001200110062
:104CA0000F000D000C000A000900070006000400B8
:104CB000030001000000FFFFFEFFFCFFFBFFF9FF08
:104CC000F8FFF6FFF5FFF3FFF1FFF0FFEEFFECFF5B
:104CD000EAFFE8FFE6FFE4FFE2FFE0FFDEFFDCFFC4
:104CE000DAFFD7FFD5FFD2FFD0FFCDFFCBFFC8FF44
:104CF000C6FFC3FFC0FFBEFFBBFFB9FFB6FFB3FFD8
:104D0000B1FFAEFFACFFA9FFA7FFA4FFA2FFA0FF6A
:104D10009DFF9BFF99FF97FF95FF93FF91FF8FFFEB
:104D20008EFF8CFF8BFF8AFF89FF88FF87FF86FF3E
:104D300085FF85FF84FF84FF84FF84FF84FF84FF59
:104D400084FF84FF84FF84FF84FF84FF85FF85FF49
:104D500085FF85FF85FF86FF86FF86FF86FF86FF2E
:104D600086FF86FF87FF87FF87FF87FF87FF87FF15
:104D700087FF88FF88FF88FF88FF89FF89FF89FFF9
:104D800089FF8AFF8AFF8BFF8BFF8CFF8CFF8DFFD3
:104D90008DFF8EFF8EFF8FFF8FFF90FF91FF91FFA2
:104DA00092FF92FF93FF93FF94FF95FF95FF96FF6D
:104DB00096FF97FF98FF98FF99FF99FF9AFF9BFF37
:104DC0009CFF9CFF9DFF9EFF9FFF9FFFA0FFA1FFF9
:104DD000A2FFA3FFA4FFA5FFA6FFA7FFA8FFA9FFAF
:104DE000AAFFABFFACFFADFFAEFFAFFFB0FFB2FF5E
:104DF000B3FFB4FFB6FFB7FFB9FFBBFFBDFFBFFFF7
:104E0000C1FFC2FFC4FFC6FFC7FFC9FFCBFFCCFF76
:104E1000CEFFD0FFD2FFD4FFD6FFD8FFDAFFDDFFF1
:104E2000DFFFE1FFE4FFE6FFE8FFE9FFEBFFECFF58
:104E3000EDFFEEFFF0FFF1FFF2FFF4FFF6FFF8FFEA
:104E4000FBFFFFFFBAFFB5FFB1FFAFFFAEFFADFF46
:104E5000AEFFAFFFB0FFB2FFB3FFB4FFB5FFB4FFCB
:104E6000B4FFB3FFB1FFAFFFADFFABFFA9FFA7FFDB
:104E7000A6FFA5FFA4FFA3FFA3FFA3FFA3FFA2FF1D
:104E8000A2FFA2FFA1FFA0FF9FFF9EFF9CFF9BFF31
:104E900099FF98FF97FF95FF94FF93FF93FF92FF71
:104EA00091FF91FF90FF90FF8FFF8FFF8EFF8EFF8E
:104EB0008DFF8CFF8BFF8BFF8AFF8AFF89FF89FFA5
:104EC00089FF89FF89FF89FF89FF89FF89FF89FFA2
:104ED00089FF8AFF8AFF8AFF8AFF8BFF8BFF8BFF88
:104EE0008CFF8CFF8DFF8DFF8EFF8EFF8FFF90FF5D
:104EF00090FF91FF92FF93FF93FF94FF95FF95FF23
:104F000096FF97FF98FF98FF99FF9AFF9BFF9BFFE3
:104F10009CFF9DFF9DFF9EFF9FFF9FFFA0FFA0FFA7
:104F2000A1FFA1FFA2FFA3FFA3FFA3FFA4FFA4FF74
:104F3000A5FFA5FFA5FFA6FFA6FFA6FFA7FFA7FF4A
:104F4000A7FFA7FFA7FFA7FFA7FFA8FFA8FFA8FF2E
:104F5000A8FFA8FFA7FFA7FFA7FFA7FFA7FFA7FF1F
:104F6000A7FFA6FFA6FFA6FFA6FFA6FFA5FFA5FF1A
:104F7000A5FFA5FFA4FFA4FFA4FFA3FFA3FFA3FF1A
:104F8000A3FFA2FFA2FFA2FFA2FFA2FFA1FFA1FF1A
:104F9000A1FFA1FFA1FFA1FFA1FFA1FFA1FFA1FF11
:104FA000A2FFA2FFA2FFA2FFA3FFA3FFA3FFA4FFF4
:104FB000A4FFA5FFA5FFA6FFA7FFA7FFA8FFA9FFC6
:104FC000AAFFABFFACFFADFFAEFFAFFFB0FFB1FF7D
:104FD000B2FFB4FFB5FFB6FFB7FFB9FFBAFFBBFF23
:104FE000BDFFBEFFC0FFC1FFC3FFC4FFC6FFC7FFB9
:104FF000C8FFCAFFCBFFCDFFCEFFD0FFD1FFD3FF4D
:10500000D4FFD5FFD7FFD8FFD9FFDAFFDCFFDDFFE4
:10501000DEFFDFFFE0FFE1FFE2FFE3FFE4FFE5FF8C
:10502000E6FFE7FFE8FFE9FFE9FFEAFFEBFFEBFF41
:10503000ECFFECFFEDFFEDFFEDFFEEFFEEFFEEFF0F
:10504000EEFFEEFFEEFFEEFFEEFFEEFFEEFFEEFFF8
:10505000EEFFEEFFEDFFEDFFEDFFEDFFECFFECFFF0
:10506000EBFFEBFFEBFFEAFFEAFFE9FFE9FFE8FFF9
:10507000E8FFE7FFE7FFE6FFE5FFE5FFE4FFE4FF0A
:10508000E3FFE3FFE3FFE2FFE2FFE1FFE1FFE1FF18
:10509000E0FFE0FFE0FFE0FFDFFFDFFFDFFFDFFF1C
:1050A000DFFFDFFFDFFFDFFFDFFFDFFFDFFFDFFF10
:1050B000DFFFE0FFE0FFE0FFE0FFE1FFE1FFE1FFF6
:1050C000E2FFE2FFE2FFE3FFE3FFE4FFE4FFE5FFCF
:1050D000E5FFE6FFE6FFE7FFE7FFE8FFE8FFE9FFA0
:1050E000E9FFEAFFEBFFEBFFECFFECFFEDFFEEFF6C
:1050F000EEFFEFFFF0FFF1FFF1FFF2FFF3FFF4FF30
:10510000F4FFF5FFF6FFF7FFF8FFF9FFFAFFFBFFEB
:10511000FCFFFDFFFEFFFFFF00000000010002009A
:10512000030005000600070008000A000B000C0041
:105130000E000F00100012001300150016001700DB
:1051400019001A001C001D001F002000220023006F
:1051500025002600280029002A002C002D002F0001
:1051600030003200330034003600370038003A0097
:105170003B003C003D003F00400041004200430036
:105180004400450046004700480049004A004B00E3
:105190004C004D004E004F004F0050005100510098
:1051A0005200530053005400540055005500550060
:1051B000560056005600570057005700570057003A
:1051C0005700570057005700570057005700570027
:1051D0005700560056005600560055005500540022
:1051E000540054005300530052005200520051002A
:1051F0005100500050004F004F004E004E004D0037
:105200004D004D004C004C004B004B004B004B0040
:105210004A004A004A004900490049004900490043
:105220004900490049004800480048004900490039
:10523000490049004900490049004A004A004A0023
:105240004A004B004B004B004C004C004C004D0002
:105250004D004E004E004E004F00500050005100D7
:1052600051005200520053005300540055005500A5
:105270005600570057005800590059005A005B006B
:105280005C005C005D005E005F005F00600061002C
:1052900062006200630064006500650066006700EC
:1052A0006800690069006A006B006B006C006D00AB
:1052B0006D006E006F006F00700070007100710073
:1052C0007200720073007300740074007400750043
:1052D0007500750075007500750076007600760023
:1052E0007600760076007500750075007500750013
:1052F0007400740074007400730073007200720014
:1053000071007100700070006F006F006E006E0021
:105310006D006C006C006B006A006A006900680038
:10532000670066006600650064006300620061005B
:10533000610060005F005E005D005C005B005A0081
:1053400059005800570056005500540053005300B0
:105350005200510050004F004E004C004B004A00DC
:105360004900480047004600450044004300420011
:10537000410040003F003E003D003C003B003A0041
:105380003900380037003600350034003300310072
:1053900030002F002E002D002C002B002A002800AA
:1053A00027002600250024002200210020001F00E5
:1053B0001D001C001B001A00180017001600140026
:1053C0001300120010000F000E000C000B0009006B
:1053D0000800070005000400020001000000FFFFB4
:1053E000FEFFFCFFFBFFFAFFF8FFF7FFF6FFF4FFFD
:1053F000F3FFF2FFF1FFEFFFEEFFEDFFECFFEAFF3F
:10540000E9FFE8FFE7FFE6FFE5FFE4FFE3FFE2FF78
:10541000E1FFDFFFDEFFDDFFDCFFDCFFDBFFDAFFAC
:10542000D9FFD8FFD7FFD6FFD5FFD4FFD3FFD3FFD7
:10543000D2FFD1FFD0FFCFFFCEFFCEFFCDFFCCFFFD
:10544000CBFFCBFFCAFFC9FFC8FFC7FFC7FFC6FF1F
:10545000C5FFC4FFC4FFC3FFC2FFC1FFC0FFC0FF41
:10546000BFFFBEFFBDFFBCFFBCFFBBFFBAFFB9FF64
:10547000B8FFB7FFB6FFB5FFB5FFB4FFB3FFB2FF8C
:10548000B1FFB0FFAFFFAEFFADFFACFFABFFA9FFB9
:10549000A8FFA7FFA6FFA5FFA4FFA3FFA2FFA0FFF1
:1054A0009FFF9EFF9DFF9CFF9AFF99FF98FF97FF2C
:1054B00096FF95FF94FF92FF91FF90FF8FFF8EFF65
:1054C0008DFF8CFF8BFF8AFF8AFF89FF88FF87FF94
:1054D00086FF86FF85FF84FF84FF83FF83FF82FFB3
:1054E00082FF82FF81FF81FF81FF81FF81FF81FFBA
:1054F00080FF81FF81FF81FF81FF81FF81FF81FFAD
:1055000082FF82FF82FF83FF83FF84FF84FF85FF8A
:1055100085FF86FF86FF87FF87FF88FF89FF89FF5A
:105520008AFF8AFF8BFF8CFF8CFF8DFF8EFF8EFF23
:105530008FFF8FFF90FF91FF91FF92FF92FF93FFEC
:1055400093FF94FF94FF95FF95FF96FF96FF97FFBB
:1055500097FF98FF98FF98FF98FF99FF99FF99FF91
:1055600099FF9AFF9AFF9AFF9AFF9AFF9AFF9AFF74
:105570009AFF9AFF9AFF9AFF9AFF99FF99FF99FF66
:1055800099FF99FF98FF98FF98FF97FF97FF97FF64
:1055900097FF96FF96FF96FF95FF95FF94FF94FF68
:1055A00094FF93FF93FF92FF92FF92FF91FF91FF71
:1055B00091FF91FF91FF91FF91FF91FF91FF91FF6B
:1055C00091FF91FF91FF91FF91FF91FF91FF91FF5B
:1055D00091FF92FF92FF93FF94FF94FF96FF97FF36
:1055E00098FF99FF9AFF9BFF9CFF9CFF9DFF9DFFEB
:1055F0009EFF9FFF9FFFA0FFA1FFA3FFA4FFA6FFA9
:10560000A8FFABFFADFFAFFFB1FFB3FFB5FFB6FF24
:10561000B7FFB7FF96FF92FF90FF8FFF8FFF91FFBD
:1056200094FF97FF9CFFA1FFA7FFADFFB3FFB8FF5B
:10563000BDFFC2FFC7FFCAFFCEFFD0FFD2FFD4FF1E
:10564000D5FFD6FFD7FFD8FFDAFFDBFFDCFFDEFF99
:10565000E0FFE3FFE5FFE8FFECFFEFFFF3FFF6FFFE
:10566000FAFFFDFF00000200050008000A000C0020
:105670000E00100011001200140015001600180092
:1056800019001B001C001E00200022002400260020
:1056900028002A002B002D002F003000320033009C
:1056A0003400350036003600370038003800390045
:1056B00039003A003A003B003C003C003D003D0010
:1056C0003E003E003F003F004000400041004100DE
:1056D00041004100410041004100410041004100C2
:1056E00041004100400040004000400040003F00B9
:1056F0003F003F003F003F003E003E003E003D00B7
:105700003D003D003C003C003B003B003A003A00BD
:1057100039003900380038003700370036003600CD
:1057200035003500340034003300330032003200DD
:1057300031003100300030002F002E002E002D00EF
:105740002D002C002C002B002B002A002A00290001
:10575000290028002800280027002700260026000E
:105760002500250025002400240023002300230019
:105770002200220022002100210021002000200020
:1057800020001F001F001F001E001E001E001E0024
:105790001D001D001D001C001C001C001B001B0028
:1057A0001B001B001A001A001A001900190019002A
:1057B0001800180017001700170016001600150033
:1057C000150015001400140013001300120012003D
:1057D00011001100100010000F000E000E000D004F
:1057E0000D000C000B000B000A0009000900080066
:1057F0000700060006000500040003000200010087
:10580000010000000000FFFFFEFFFDFFFCFFFCFFAA
:10581000FBFFFAFFF9FFF8FFF7FFF6FFF5FFF4FFD4
:10582000F3FFF3FFF2FFF1FFF0FFEFFFEEFFEDFFFD
:10583000EDFFECFFEBFFEAFFE9FFE9FFE8FFE7FF21
:10584000E6FFE6FFE5FFE4FFE4FFE3FFE2FFE2FF40
:10585000E1FFE0FFE0FFDFFFDFFFDEFFDEFFDDFF58
:10586000DCFFDCFFDBFFDBFFDBFFDAFFDAFFD9FF6A
:10587000D9FFD8FFD8FFD8FFD7FFD7FFD7FFD6FF74
:10588000D6FFD6FFD5FFD5FFD5FFD5FFD4FFD4FF78
:10589000D4FFD4FFD4FFD4FFD3FFD3FFD3FFD3FF74
:1058A000D3FFD3FFD3FFD3FFD3FFD3FFD3FFD3FF68
:1058B000D3FFD3FFD3FFD3FFD3FFD4FFD4FFD4FF55
:1058C000D4FFD4FFD4FFD5FFD5FFD5FFD5FFD6FF3A
:1058D000D6FFD6FFD7FFD7FFD7FFD8FFD8FFD8FF17
:1058E000D9FFD9FFD9FFDAFFDAFFDAFFDBFFDBFFF1
:1058F000DCFFDCFFDDFFDDFFDDFFDEFFDEFFDFFFC6
:10590000DFFFE0FFE0FFE1FFE1FFE2FFE2FFE3FF97
:10591000E3FFE4FFE4FFE5FFE5FFE6FFE6FFE7FF67
:10592000E8FFE8FFE9FFE9FFEAFFEAFFEBFFECFF32
:10593000ECFFEDFFEDFFEEFFEFFFEFFFF0FFF0FFFD
:10594000F1FFF2FFF2FFF3FFF4FFF4FFF5FFF5FFC5
:10595000F6FFF7FFF7FFF8FFF9FFF9FFFAFFFBFF8C
:10596000FBFFFCFFFDFFFDFFFEFFFFFFFFFF000051
:105970000000010001000200030003000400050014
:1059800005000600070007000800090009000A00DA
:105990000B000C000C000D000E000E000F0010009C
:1059A0001000110012001300130014001500150060
:1059B0001600170017001800190019001A001B0024
:1059C0001B001C001D001E001E001F001F002000E9
:1059D00021002100220023002300240025002500AF
:1059E00026002600270027002800290029002A0079
:1059F0002A002B002B002C002C002D002D002E0047
:105A00002E002F002F002F00300030003100310019
:105A100031003200320032003300330033003400F2
:105A200034003400340035003500350035003500D1
:105A300036003600360036003600360036003600B6
:105A4000370037003700370037003700370037009E
:105A5000370037003700370037003700370037008E
:105A6000370037003700370037003700370037007E
:105A70003700360036003600360036003600360075
:105A80003600360036003600360035003500350069
:105A90003500350035003500350035003400340060
:105AA0003400340034003400340034003300330058
:105AB0003300330033003300330033003200320050
:105AC000320032003200320031003100310031004A
:105AD0003100300030003000300030002F002F0047
